:020000040000fa
:080000000002040000000000f2
:020000040000fa
:04000800f6020000fc
:020000040000fa
:04000c00f6020000f8
:020000040000fa
:04001000f6020000f4
:020000040000fa
:04001400f6020000f0
:020000040000fa
:04001800f6020000ec
:020000040000fa
:04001c00f6020000e8
:020000040000fa
:04002000f6020000e4
:020000040000fa
:04002400f6020000e0
:020000040000fa
:04002800f6020000dc
:020000040000fa
:04002c00f6020000d8
:020000040000fa
:04003000f6020000d4
:020000040000fa
:04003400d4020000f2
:020000040000fa
:04003800f6020000cc
:020000040000fa
:04003c00f6020000c8
:020000040000fa
:04004000f6020000c4
:020000040000fa
:04004400f6020000c0
:020000040000fa
:04004800f6020000bc
:020000040000fa
:04004c00f6020000b8
:020000040000fa
:04005000f6020000b4
:020000040000fa
:04005400f6020000b0
:020000040000fa
:04005800f6020000ac
:020000040000fa
:04005c00f6020000a8
:020000040000fa
:04006000f6020000a4
:020000040000fa
:04006400f6020000a0
:020000040000fa
:04006800f60200009c
:020000040000fa
:04006c00f602000098
:020000040000fa
:04007000f602000094
:020000040000fa
:04007400f602000090
:020000040000fa
:04007800f60200008c
:020000040000fa
:04007c00f602000088
:020000040000fa
:04008000f602000084
:020000040000fa
:04008400f602000080
:020000040000fa
:04008800f60200007c
:020000040000fa
:04008c00f602000078
:020000040000fa
:04009000f602000074
:020000040000fa
:04009400f602000070
:020000040000fa
:04009800f60200006c
:020000040000fa
:04009c00f602000068
:020000040000fa
:0400a000f602000064
:020000040000fa
:0400a400f602000060
:020000040000fa
:0400a800f60200005c
:020000040000fa
:0400ac00f602000058
:020000040000fa
:0400b000f602000054
:020000040000fa
:0400b400f602000050
:020000040000fa
:0400b800f60200004c
:020000040000fa
:0400bc00f602000048
:020000040000fa
:0400c000f602000044
:020000040000fa
:0400c400f602000040
:020000040000fa
:0400c800f60200003c
:020000040000fa
:0400cc00f602000038
:020000040000fa
:0400d000f602000034
:020000040000fa
:0400d400f602000030
:020000040000fa
:0400d800f60200002c
:020000040000fa
:0400dc00f602000028
:020000040000fa
:0400e000f602000024
:020000040000fa
:0400e400f602000020
:020000040000fa
:0400e800f60200001c
:020000040000fa
:0400ec00f602000018
:020000040000fa
:0400f000f602000014
:020000040000fa
:0400f400f602000010
:020000040000fa
:0400f800f60200000c
:020000040000fa
:0400fc00f602000008
:020000040000fa
:04010000f602000003
:020000040000fa
:04010400f6020000ff
:020000040000fa
:04010800f6020000fb
:020000040000fa
:04010c00f6020000f7
:020000040000fa
:04011000f6020000f3
:020000040000fa
:04011400f6020000ef
:020000040000fa
:04011800f6020000eb
:020000040000fa
:04011c00f6020000e7
:020000040000fa
:04012000f6020000e3
:020000040000fa
:04012400f6020000df
:020000040000fa
:04012800f6020000db
:020000040000fa
:04012c00f6020000d7
:020000040000fa
:04013000f6020000d3
:020000040000fa
:04013400f6020000cf
:020000040000fa
:04013800f6020000cb
:020000040000fa
:04013c00f6020000c7
:020000040000fa
:04014000f6020000c3
:020000040000fa
:04014400f6020000bf
:020000040000fa
:04014800f6020000bb
:020000040000fa
:04014c00f6020000b7
:020000040000fa
:04015000f6020000b3
:020000040000fa
:04015400f6020000af
:020000040000fa
:04015800f6020000ab
:020000040000fa
:04015c00f6020000a7
:020000040000fa
:04016000f6020000a3
:020000040000fa
:04016400f60200009f
:020000040000fa
:04020800f6020000fa
:020000040000fa
:04020c00f6020000f6
:020000040000fa
:04021000f6020000f2
:020000040000fa
:04021400f6020000ee
:020000040000fa
:04021800f6020000ea
:020000040000fa
:04021c00f6020000e6
:020000040000fa
:04022000f6020000e2
:020000040000fa
:04022400f6020000de
:020000040000fa
:04022800f6020000da
:020000040000fa
:04022c00f6020000d6
:020000040000fa
:04023000f6020000d2
:020000040000fa
:04023400d4020000f0
:020000040000fa
:04023800f6020000ca
:020000040000fa
:04023c00f6020000c6
:020000040000fa
:04024000f6020000c2
:020000040000fa
:04024400f6020000be
:020000040000fa
:04024800f6020000ba
:020000040000fa
:04024c00f6020000b6
:020000040000fa
:04025000f6020000b2
:020000040000fa
:04025400f6020000ae
:020000040000fa
:04025800f6020000aa
:020000040000fa
:04025c00f6020000a6
:020000040000fa
:04026000f6020000a2
:020000040000fa
:04026400f60200009e
:020000040000fa
:04026800f60200009a
:020000040000fa
:04026c00f602000096
:020000040000fa
:04027000f602000092
:020000040000fa
:04027400f60200008e
:020000040000fa
:04027800f60200008a
:020000040000fa
:04027c00f602000086
:020000040000fa
:04028000f602000082
:020000040000fa
:04028400f60200007e
:020000040000fa
:04028800f60200007a
:020000040000fa
:04028c00f602000076
:020000040000fa
:04029000f602000072
:020000040000fa
:04029400f60200006e
:020000040000fa
:04029800f60200006a
:020000040000fa
:04029c00f602000066
:020000040000fa
:0402a000f602000062
:020000040000fa
:0402a400f60200005e
:020000040000fa
:0402a800f60200005a
:020000040000fa
:0402ac00f602000056
:020000040000fa
:0402b000f602000052
:020000040000fa
:0402b400f60200004e
:020000040000fa
:0402b800f60200004a
:020000040000fa
:0402bc00f602000046
:020000040000fa
:0402c000f602000042
:020000040000fa
:0402c400f60200003e
:020000040000fa
:0402c800f60200003a
:020000040000fa
:0402cc00f602000036
:020000040000fa
:0402d000f602000032
:020000040000fa
:0402d400f60200002e
:020000040000fa
:0402d800f60200002a
:020000040000fa
:0402dc00f602000026
:020000040000fa
:0402e000f602000022
:020000040000fa
:0402e400f60200001e
:020000040000fa
:0402e800f60200001a
:020000040000fa
:0402ec00f602000016
:020000040000fa
:0402f000f602000012
:020000040000fa
:0402f400f60200000e
:020000040000fa
:0402f800f60200000a
:020000040000fa
:0402fc00f602000006
:020000040000fa
:04030000f602000001
:020000040000fa
:04030400f6020000fd
:020000040000fa
:04030800f6020000f9
:020000040000fa
:04030c00f6020000f5
:020000040000fa
:04031000f6020000f1
:020000040000fa
:04031400f6020000ed
:020000040000fa
:04031800f6020000e9
:020000040000fa
:04031c00f6020000e5
:020000040000fa
:04032000f6020000e1
:020000040000fa
:04032400f6020000dd
:020000040000fa
:04032800f6020000d9
:020000040000fa
:04032c00f6020000d5
:020000040000fa
:04033000f6020000d1
:020000040000fa
:04033400f6020000cd
:020000040000fa
:04033800f6020000c9
:020000040000fa
:04033c00f6020000c5
:020000040000fa
:04034000f6020000c1
:020000040000fa
:04034400f6020000bd
:020000040000fa
:04034800f6020000b9
:020000040000fa
:04034c00f6020000b5
:020000040000fa
:04035000f6020000b1
:020000040000fa
:04035400f6020000ad
:020000040000fa
:04035800f6020000a9
:020000040000fa
:04035c00f6020000a5
:020000040000fa
:04036000f6020000a1
:020000040000fa
:04036400f60200009d
:020000040000fa
:10040000af8420000e7f24000e0188000000000051
:10041000000020000000e000020032000001200087
:100420002002880014000700bd0007000000e00063
:1004300003003a00009e2000010020000200370067
:100440000000200001002000810f70000100320038
:1004500014000700000020000000e000020032004d
:1004600000000200000000009605020000000000ed
:100470000040da000000fe004440a90060012000b6
:100480000000e0000300320000002000a00188000e
:100490004440a800000006008a1f78008b1f7800e7
:1004a0000000060091018800800478000000eb0045
:1004b0001a003700e284440032a0b4009905ba0063
:1004c000e284440032a0b4009906ba00e2844400f9
:1004d00032a0b4000006eb00476fde00fd07b2005b
:1004e000636ce10003003a00ebff07000000eb0043
:1004f0000a003700606ce10004003a00005deb0088
:100500008b05e900fdff3e00040037006168e10053
:10051000010032000086eb000b00070019c7ba008b
:100520001905ba000e04e00003003a000a00e000da
:10053000e0ff3a0000000600fe07b2009e018800be
:100540008a047800f5ff3700395dba008b05e900b1
:100550000c003200295dba008b05e900080032006a
:100560000c00e00003003a00e284440032a0b40032
:10057000f5ff370019ddba008b05e900faff3a00f4
:100580008904e800e184440032a0b40000000600c1
:100590003204040000000000e0030400000000003a
:1005a000ac03040000000000809fbe000000fa00c1
:1005b0000040800011408000e00f5000e08f5800a4
:1005c00006003200004080001140800061005000b1
:1005d000e080580000408800114088008460a90035
:1005e0000080fa004f00be00004006000040da0024
:1005f0000000fe000a00fa0011002000b1bf9f00b9
:10060000c0bf9f006a805700390107004fb89700ac
:100610000080fa00000006000a00fa00e20f500015
:1006200034003e0040428000e10f500003003200e1
:10063000e20f500011003a000c00370003222000a6
:100640000300e00001003a000040da002002e2006e
:10065000020035002822ef0021e2a8002342ab006f
:100660000d003a002342a8000b00370003232000ae
:100670000300e00001003a000040da003002e2002e
:10068000020035003822ef0031e2a8003342ab000f
:1006900001003a003342a800820178000b003700c5
:1006a0003102fb00e10f500004003a002322ab00ae
:1006b000feff3a0024118800030037003322ab000c
:1006c000feff3a00a41188008301e9000300e00066
:1006d000f3ff3a00e10f500003003a002302ab00a1
:1006e000feff32000b0037003302ab00feff32008a
:1006f0000800370033002000b3bf9f00c0bf9f0039
:10070000d1bf9f00e2bf9f006a805700fa00070038
:100710006fb99700020078000080fa000000060020
:10072000000005002140800091007800790007005a
:10073000110020000000e00005003500204080008e
:1007400090007800a0002000c2000700cf00de006b
:100750000100ea000000060000000600a080200062
:1007600000000600fdff0700404088003040880080
:1007700000000600889fbe0000047800480090003a
:1007800082047800808f54000100360080047800d5
:100790000901780058009000900007005800900070
:1007a0000900400050049800c8009000898450005f
:1007b000490498000048eb004f04be00000006000a
:1007c0001000780094ff3700900190000388a30088
:1007d00001003200e7ff37000348a30001003a00a0
:1007e000f7ff070000000600889fbe000004be005f
:1007f0000000eb000800e000180032001800900034
:100800000058a3000d003200d8009000680090004e
:10081000808f500009003600b80990000001eb00fd
:10082000820078000800780003000100d8009000e2
:100830000080eb000100e000080032000000eb0047
:10084000200c980060049800500498000900e00013
:10085000020032001800780066ff07004f04be0057
:1008600000000600889fbe000004be000000eb00f0
:100870000800e00025003200180090000058a30096
:1008800011003200d800900068009000808f500066
:1008900009003600b80990000001eb0082007800e2
:1008a0000800780003000100d80090000080eb00f1
:1008b0000100e000150032000000eb00200c980061
:1008c0006004980050049800780a90000810900086
:1008d000800f52000600310000025200110020007b
:1008e000cfa2de00612bb9001800780035000700a8
:1008f0000000eb0000149800700c98000900e00064
:1009000002003200180078003aff07004f04be00d2
:1009100000000600889fbe008a1f780080047800cf
:1009200001057800090078004b00070000047800fa
:100930008a01780008017800110020000900780081
:100940000a000700800078000080eb00888f5000cc
:1009500001003a000000eb004f0578004f04be0094
:1009600000000600100078002bff3700889fbe00b3
:100970008a9fbe00810478000204780009c5b9008e
:100980000900e00001003a000004eb000a017800d1
:10099000800078000300780089ff0700800078005d
:1009a0008a8f500003003200110009008980d800ae
:1009b00000047800080078004f05be004f04be0018
:1009c00000000600a0fd2f00f1ff2f003a000700f5
:1009d0004f89de0082017800000006008001780067
:1009e00002003700b15978000201e9000200e0007e
:1009f000fcff3a00000006000200fa0081017800c6
:100a0000e0ff9f00930090000188a30005003200e2
:100a1000d3009000805878000080fb00d10198003e
:100a20000a003700120020008f80e90003007800e0
:100a300063ff0700800078000080eb000100e00009
:100a400002003200eff897000180fb000080fa00fe
:100a500000000600e8ff370080007800040037003f
:100a60003104e00002003a000000510000000600de
:100a7000010178000108a300f9ff3a008101780024
:100a800031017800f4ef2f00020242000281ea00f7
:100a9000020162000408280004016100f7ff32002f
:100aa00083007800010178003104e000fdff3a0086
:100ab000000051000000060002002f00f3ff2f008d
:100ac000820f5000838f5800040036000000ea00b7
:100ad000304288000080eb008080eb0000000600c0
:100ae000000006001fff0700fdff0700fcff3700a6
:100af00000c0da000000060000c0da0000000600b6
:020000040000fa
:100b0000486500006c6c00006f2c00002055000050
:100b100041520000542100000d00000000010000bf
:0c0b2000000100000001000001000000c6
:020000040000fa
:100b2c000000fa00c60107009d010700b80107008c
:100b3c00005822003e010700eb0107000058280076
:100b4c00f5fe0700cd82a800100020000b02070064
:100b5c00cd82a90010002000080207000060fe00f2
:100b6c00f8ff37000c00fa00204f9800e100470016
:100b7c00070009008058eb000040eb00004f7800a4
:100b8c000a0037001e80fb00ae4890000181fb007c
:100b9c009e80fb008190de0081407800e1c0600007
:100bac0000004700114098001e4fe8001e407800de
:100bbc00e74f5000f3ff3600cd82a9001e40900095
:100bcc00614060000080fb00610060004900dd00b6
:100bdc00211680000190a1000100700020168800f1
:100bec002e409000614060000080fb0061006000be
:100bfc004300dd00a11680000130a100010070004f
:100c0c00a01688003e409000614060000080fb0010
:100c1c00610060004400dd00a11680000140a100cd
:100c2c0001007000a01688004e40900061406000ea
:100c3c000080fb00610060004500dd00a116800013
:100c4c000150a10001007000a01688005e409000c9
:100c5c00614060000080fb00610060004500dd0029
:100c6c00611680000150a100010070006016880020
:100c7c006e409000614060000080fb0061006000ed
:100c8c004600dd00611680000160a10001007000cb
:100c9c00601688007e409000614060000080fb0080
:100cac00610060004700dd00611680000170a1004a
:100cbc0001007000601688000e48900061406000d2
:100ccc000080fb00610060004800dd0061168000c0
:100cdc000180a10001007000601688001000200047
:100cec00a6010700cd82a800a0002000a3010700e8
:100cfc000080fa00000006000000fa000040eb0043
:100d0c0098ff07000040eb0096ff07000040eb0047
:100d1c0094ff07000080fa00000006000c00fa00a7
:100d2c00e3004700e258280007000900b258780099
:100d3c000040eb00004f78000040eb00204798008b
:100d4c000040eb00104798000d0037001e4090004b
:100d5c000080fb0000004700304090008080fb00ca
:100d6c001e4090000080fb000008dd000040780071
:100d7c001e4f40001e4090000040e80010479800b5
:100d8c001e409000e74f5000f0ff3600be48900028
:100d9c002147980010c0b30072ff07001e40780076
:100dac0070ff07002e4090006eff07000080fa00d5
:100dbc00000006000400fa00204798003147980014
:100dcc00ae409000014f7800be4090001147980053
:100ddc0020c0b30063ff07001e40780061ff0700ce
:100dec001e4090005fff07000080fa000000060024
:100dfc000600fa00204798003147980042479800b7
:100e0c00ae409000014f78000040eb001047980076
:100e1c003e409000e14060001e40900000c0700019
:100e2c00104798003e4090000080fb000000d1006d
:100e3c00004078000080fb00610060000000400072
:100e4c00804078001e40900000c070001047980051
:100e5c003e4090000080fb004200de000040780025
:100e6c000080fb00610060004200dd0080407800e3
:100e7c001e40900000c07000104798004e4090003b
:100e8c000080fb00610060004300dd0080407800c2
:100e9c001e40900000c070001047980030c0b30096
:100eac0030ff07001e4078002eff07001e40900008
:100ebc002cff07000080fa00000006000400fa0076
:100ecc0020479800314798000040eb00004f780015
:100edc002e409000e14060001e40900000c0700069
:100eec00104798003e4090000080fb0061006000bd
:100efc0000004000804078001e40900000c0700050
:100f0c00104798003e4090000080fb000000d1008c
:100f1c00004078000080fb00610060004200dd00b2
:100f2c00804078001e40900000c070001047980070
:100f3c003e4090000080fb004200de000040780044
:100f4c000080fb00610060004300dd008040780001
:100f5c001e40900000c07000104798003e4090006a
:100f6c000080fb004300de00004078000080fb00a6
:100f7c00610060004400dd00804078001e4090005d
:100f8c0000c07000104798003e4090000080fb00ad
:100f9c004400de00004078000080fb00610060002f
:100fac004500dd00804078001e40900000c07000bd
:100fbc001047980040c0b300eafe07001e409000a6
:100fcc00e8fe07001e407800e6fe07000080fa00ed
:100fdc00000006000a00fa00004f98008e489000ae
:100fec00014f78000040eb001047980050c0b30050
:100ffc00dcfe07001e407800dafe07001e40900061
:10100c00d8fe07000080fa00000006000000fa007d
:10101c000040eb00d3fe07000040eb00d1fe0700c0
:10102c000040eb00cffe07000080fa000000060035
:10103c000200fa00000f78004b000700301020006f
:10104c004011880000002800001188000040280092
:10105c00101188008560a90011118000f0f32f0099
:10106c0000806000101188000080fa00000006006b
:10107c000200fa00004f78000000000011118000ff
:10108c0000202000008060000000e000fbff3a0020
:10109c001e00fb00201188000080fa0000000600f2
:1010ac000400fa00100798000000eb00000f780015
:1010bc00060037001e0078009e0090000080400063
:1010cc0010407800eaff07001e0fe8001e007800b1
:1010dc009e00900000804000104078000004e0006a
:1010ec00f4ff3a000080fa00000006000200fa004b
:1010fc0000000000210480000080200000806000bf
:10110c000000e000fbff320030118000004f78003f
:10111c008560a9001e4078000080fa0000000600df
:10112c000400fa00881f7800100798000000eb00fc
:10113c00000f7800060037001e0078009e0090001b
:10114c0000844000e9ff0700004c78001e0fe80007
:10115c001e007800e10f5000f7ff34004f047800b8
:10116c000080fa00000006000000fa002135800023
:10117c0000fe2f0000806000a000b3002035880026
:10118c0051368000f00f2e0080806000003020006f
:10119c0001007000503688000080fa000000060044
:1011ac000000fa00c9c2a900c0e2a800c142a80010
:1011bc00c982a900c922a800c9a2a900c9e2a90034
:1011cc00d0c2a900d122a900c942a800c962a900b5
:1011dc000080eb00601988000080fa000000060017
:1011ec000000fa00d4c2a800c122a800d062a80056
:1011fc00d082a800d0a2a800c8a2a800c8c2a8008b
:10120c00c8e2a800c902a8000080fa00000006008d
:10121c000000fa00d4c2a900c122a900d062a90022
:10122c00d082a900d0a2a900c8a2a900c8c2a90056
:10123c00c8e2a900c902a9000080fa00000006005b
:10124c000000fa00e0012000303a8800213a8000ca
:10125c00f0f32f0000806000203a8800213a8000d3
:10126c0000fe2f0000806000203a88003200200031
:10127c0080072000a10920003374200080497800e9
:10128c008149780082497800103a8000000178008a
:10129c000200a000600420007105200023742000cf
:1012ac00804978008149780082497800000000006c
:1012bc00113a8000000027008080600000002300ad
:1012cc00808f5000faff3a0000000000113a8000b5
:1012dc0000022000008060000000e000fbff3200f4
:1012ec000080fa00000006000000fa0005e1a900e9
:1012fc000421a90004c1a90021088000f0fc2f00e2
:10130c000080600020088800001920001008880068
:10131c0021058000f0ff28000080600000c0a000c4
:10132c00200588008460a9009460a80005e1a8004d
:10133c000080fa00000006000200fa00000f78009e
:10134c009e007800400620000088b900000078005c
:10135c00cf80de00004088001140880000000000b3
:10136c000040800011408000e00f5000e08f5800da
:10137c00fbff3a000080fa00000006000200fa00b1
:10138c00000f78001e007800cf80de00004088003f
:10139c0011408800000000000040800011408000d7
:1013ac00e00f5000e08f5800fbff3a000080fa007d
:0413bc000000060027
:020000040000fa
:1013c0000008000004000000000000000408000005
:1013d000420000000200000008080a00080a080095
:1013e00001000300000000000000000000000000f9
:1013f00000003200040000000000000000e00300d4
:10140000ac0300000000000000000000000000002d
:1014100000000000000000000000000000000000cc
:1014200000000000000000000000000000000000bc
:10143000460800000200000000000000480800000c
:101440000200000002000000010000000000000097
:020000040000fa
:0200000401f009
:04000c0000000000f0
:020000040000fa
:0200000401f009
:040010006500000087
:020000040000fa
:0200000401f009
:04001400c700000021
:020000040000fa
:0200000401f009
:04001800f7000000ed
:020000040000fa
:0200000401f009
:04001c00dfff000002
:00000001FF
