:020000040000fa
:080000000002040000000000f2
:020000040000fa
:04000800ec02000006
:020000040000fa
:04000c00ec02000002
:020000040000fa
:04001000ec020000fe
:020000040000fa
:04001400ec020000fa
:020000040000fa
:04001800ec020000f6
:020000040000fa
:04001c00ec020000f2
:020000040000fa
:04002000ec020000ee
:020000040000fa
:04002400ec020000ea
:020000040000fa
:04002800ec020000e6
:020000040000fa
:04002c00ec020000e2
:020000040000fa
:04003000ec020000de
:020000040000fa
:04003400ec020000da
:020000040000fa
:04003800ec020000d6
:020000040000fa
:04003c00ec020000d2
:020000040000fa
:04004000ec020000ce
:020000040000fa
:04004400ec020000ca
:020000040000fa
:04004800c8020000ea
:020000040000fa
:04004c00ec020000c2
:020000040000fa
:04005000ec020000be
:020000040000fa
:04005400ec020000ba
:020000040000fa
:04005800ec020000b6
:020000040000fa
:04005c00ec020000b2
:020000040000fa
:04006000ec020000ae
:020000040000fa
:04006400ec020000aa
:020000040000fa
:04006800ec020000a6
:020000040000fa
:04006c00ec020000a2
:020000040000fa
:04007000ec0200009e
:020000040000fa
:04007400ec0200009a
:020000040000fa
:04007800ec02000096
:020000040000fa
:04007c00ec02000092
:020000040000fa
:04008000ec0200008e
:020000040000fa
:04008400ec0200008a
:020000040000fa
:04008800ec02000086
:020000040000fa
:04008c00ec02000082
:020000040000fa
:04009000ec0200007e
:020000040000fa
:04009400ec0200007a
:020000040000fa
:04009800ec02000076
:020000040000fa
:04009c00ec02000072
:020000040000fa
:0400a000ec0200006e
:020000040000fa
:0400a400ec0200006a
:020000040000fa
:0400a800ec02000066
:020000040000fa
:0400ac00ec02000062
:020000040000fa
:0400b000ec0200005e
:020000040000fa
:0400b400ec0200005a
:020000040000fa
:0400b800ec02000056
:020000040000fa
:0400bc00ec02000052
:020000040000fa
:0400c000ec0200004e
:020000040000fa
:0400c400ec0200004a
:020000040000fa
:0400c800ec02000046
:020000040000fa
:0400cc00ec02000042
:020000040000fa
:0400d000ec0200003e
:020000040000fa
:0400d400ec0200003a
:020000040000fa
:0400d800ec02000036
:020000040000fa
:0400dc00ec02000032
:020000040000fa
:0400e000ec0200002e
:020000040000fa
:0400e400ec0200002a
:020000040000fa
:0400e800ec02000026
:020000040000fa
:0400ec00ec02000022
:020000040000fa
:0400f000ec0200001e
:020000040000fa
:0400f400ec0200001a
:020000040000fa
:0400f800ec02000016
:020000040000fa
:0400fc00ec02000012
:020000040000fa
:04010000ec0200000d
:020000040000fa
:04010400ec02000009
:020000040000fa
:04010800ec02000005
:020000040000fa
:04010c00ec02000001
:020000040000fa
:04011000ec020000fd
:020000040000fa
:04011400ec020000f9
:020000040000fa
:04011800ec020000f5
:020000040000fa
:04011c00ec020000f1
:020000040000fa
:04012000ec020000ed
:020000040000fa
:04012400ec020000e9
:020000040000fa
:04012800ec020000e5
:020000040000fa
:04012c00ec020000e1
:020000040000fa
:04013000ec020000dd
:020000040000fa
:04013400ec020000d9
:020000040000fa
:04013800ec020000d5
:020000040000fa
:04013c00ec020000d1
:020000040000fa
:04014000ec020000cd
:020000040000fa
:04014400ec020000c9
:020000040000fa
:04014800ec020000c5
:020000040000fa
:04014c00ec020000c1
:020000040000fa
:04015000ec020000bd
:020000040000fa
:04015400ec020000b9
:020000040000fa
:04015800ec020000b5
:020000040000fa
:04015c00ec020000b1
:020000040000fa
:04016000ec020000ad
:020000040000fa
:04016400ec020000a9
:020000040000fa
:04020800ec02000004
:020000040000fa
:04020c00ec02000000
:020000040000fa
:04021000ec020000fc
:020000040000fa
:04021400ec020000f8
:020000040000fa
:04021800ec020000f4
:020000040000fa
:04021c00ec020000f0
:020000040000fa
:04022000ec020000ec
:020000040000fa
:04022400ec020000e8
:020000040000fa
:04022800ec020000e4
:020000040000fa
:04022c00ec020000e0
:020000040000fa
:04023000ec020000dc
:020000040000fa
:04023400ec020000d8
:020000040000fa
:04023800ec020000d4
:020000040000fa
:04023c00ec020000d0
:020000040000fa
:04024000ec020000cc
:020000040000fa
:04024400ec020000c8
:020000040000fa
:04024800c8020000e8
:020000040000fa
:04024c00ec020000c0
:020000040000fa
:04025000ec020000bc
:020000040000fa
:04025400ec020000b8
:020000040000fa
:04025800ec020000b4
:020000040000fa
:04025c00ec020000b0
:020000040000fa
:04026000ec020000ac
:020000040000fa
:04026400ec020000a8
:020000040000fa
:04026800ec020000a4
:020000040000fa
:04026c00ec020000a0
:020000040000fa
:04027000ec0200009c
:020000040000fa
:04027400ec02000098
:020000040000fa
:04027800ec02000094
:020000040000fa
:04027c00ec02000090
:020000040000fa
:04028000ec0200008c
:020000040000fa
:04028400ec02000088
:020000040000fa
:04028800ec02000084
:020000040000fa
:04028c00ec02000080
:020000040000fa
:04029000ec0200007c
:020000040000fa
:04029400ec02000078
:020000040000fa
:04029800ec02000074
:020000040000fa
:04029c00ec02000070
:020000040000fa
:0402a000ec0200006c
:020000040000fa
:0402a400ec02000068
:020000040000fa
:0402a800ec02000064
:020000040000fa
:0402ac00ec02000060
:020000040000fa
:0402b000ec0200005c
:020000040000fa
:0402b400ec02000058
:020000040000fa
:0402b800ec02000054
:020000040000fa
:0402bc00ec02000050
:020000040000fa
:0402c000ec0200004c
:020000040000fa
:0402c400ec02000048
:020000040000fa
:0402c800ec02000044
:020000040000fa
:0402cc00ec02000040
:020000040000fa
:0402d000ec0200003c
:020000040000fa
:0402d400ec02000038
:020000040000fa
:0402d800ec02000034
:020000040000fa
:0402dc00ec02000030
:020000040000fa
:0402e000ec0200002c
:020000040000fa
:0402e400ec02000028
:020000040000fa
:0402e800ec02000024
:020000040000fa
:0402ec00ec02000020
:020000040000fa
:0402f000ec0200001c
:020000040000fa
:0402f400ec02000018
:020000040000fa
:0402f800ec02000014
:020000040000fa
:0402fc00ec02000010
:020000040000fa
:04030000ec0200000b
:020000040000fa
:04030400ec02000007
:020000040000fa
:04030800ec02000003
:020000040000fa
:04030c00ec020000ff
:020000040000fa
:04031000ec020000fb
:020000040000fa
:04031400ec020000f7
:020000040000fa
:04031800ec020000f3
:020000040000fa
:04031c00ec020000ef
:020000040000fa
:04032000ec020000eb
:020000040000fa
:04032400ec020000e7
:020000040000fa
:04032800ec020000e3
:020000040000fa
:04032c00ec020000df
:020000040000fa
:04033000ec020000db
:020000040000fa
:04033400ec020000d7
:020000040000fa
:04033800ec020000d3
:020000040000fa
:04033c00ec020000cf
:020000040000fa
:04034000ec020000cb
:020000040000fa
:04034400ec020000c7
:020000040000fa
:04034800ec020000c3
:020000040000fa
:04034c00ec020000bf
:020000040000fa
:04035000ec020000bb
:020000040000fa
:04035400ec020000b7
:020000040000fa
:04035800ec020000b3
:020000040000fa
:04035c00ec020000af
:020000040000fa
:04036000ec020000ab
:020000040000fa
:04036400ec020000a7
:020000040000fa
:10040000ef9820000e7f24000e01880000000000fd
:10041000000020000000e000020032000001200087
:1004200020028800140007006d0007000000e000b3
:1004300003003a00c0ea200001002000020037005b
:100440000000200001002000810f70000100320038
:1004500014000700000020000000e000020032004d
:100460000000020000000000cc0e020000000000ae
:100470000040da000000fe004440a900c000200057
:100480000000e0000300320000002000a00188000e
:100490004440a800000006008a1f78008b1f7800e7
:1004a0000000060091018800800478000000eb0045
:1004b0001a003700e284440032a0b4009905ba0063
:1004c000e284440032a0b4009906ba00e2844400f9
:1004d00032a0b4000006eb00476fde00fd07b2005b
:1004e000636ce10003003a00ebff07000000eb0043
:1004f0000a003700606ce10004003a00005deb0088
:100500008b05e900fdff3e00040037006168e10053
:10051000010032000086eb000b00070019c7ba008b
:100520001905ba000e04e00003003a000a00e000da
:10053000e0ff3a0000000600fe07b2009e018800be
:100540008a047800f5ff3700395dba008b05e900b1
:100550000c003200295dba008b05e900080032006a
:100560000c00e00003003a00e284440032a0b40032
:10057000f5ff370019ddba008b05e900faff3a00f4
:100580008904e800e184440032a0b40000000600c1
:10059000809fbe000000fa0019c8bf0061406000e3
:1005a0000080fb00610060004d00dd0061168000ee
:1005b00001d0a10001007000601688000a21ef0040
:1005c0008500a90010c0b30018e8b7000080fa0049
:1005d0004f00be00004006000040da000000fe00b0
:0405e0000000050012
:020000040000fa
:1005e4005374000061740000652000004944000059
:0805f4004c4500000a00000064
:020000040000fa
:1005fc000200fa00000f78001e0078008000eb006b
:10060c009200200003002000820f5000838f5800be
:10061c0030003e0000600100090037000c0037007c
:10062c000e0037001000370026003700110037008d
:10063c00200037001b003700120037001500370070
:10064c00cde2a80071000700000f780022003700ef
:10065c009e000700000f78001f003700df00070026
:10066c00000f78001c00370018010700000f7800fd
:10067c0019003700cde2a900af010700000f780088
:10068c0015003700cde2a9006f030700000f7800ba
:10069c0011003700cde2a900e1030700000f78003c
:1006ac000d003700cde2a9008a020700000f780088
:1006bc0009003700cde2a90064020700000f7800a2
:1006cc0005003700cde2a9003c010700000f7800bf
:1006dc00010037000000000012c8bf0013e8b7008b
:1006ec00501680004e00de006140600012e8b7003a
:1006fc0014c8bf0015e8b700101680004700de00d4
:10070c006140600014e8b70010c8bf0011e8b700e2
:10071c00101680004a00de006140600010e8b7004f
:10072c0010c8bf000004e0000600320011c8bf0072
:10073c000004e00003003a00910407000000eb0005
:10074c00000f78001e0078000080fa000000060000
:10075c000800fa00100798002107980062479800db
:10076c000040eb00004f7800220037001e80fb0099
:10077c009e00900000804000104078000004e000d3
:10078c000e003a001e80fb0000004000ae009000fe
:10079c000080400011c0b300014878001e80fb00af
:1007ac00000040000000e800ae0090000080400017
:1007bc008040eb00014878000d0037001e80fb00e4
:1007cc0000004000ae009000008040008040eb0034
:1007dc00014878001e80fb00000040000000e8008b
:1007ec00ae0090000080400011c0b30001487800ba
:1007fc001e4fe8006e4090009e40780080cf500065
:10080c00daff39000080fa00000006000000fa0050
:10081c0012c8bf000004e0000f00320013c8bf0074
:10082c000004e0000c003a0011168000004020008b
:10083c00008060000000e00007003200111680000c
:10084c0000082000008060000000e0000200320080
:10085c00100020001b00370014c8bf000004e0008b
:10086c000a00320015c8bf000004e00007003a007f
:10087c005116800000002100008060000000e000a4
:10088c0002003200800020000e00370014c8bf00a8
:10089c000004e0000a00320015c8bf000004e000ac
:1008ac0007003a0051168000000021000080600013
:1008bc000000e00002003a00900020000100370028
:1008cc000000eb000080fa00000006000000fa00b7
:1008dc00101680004900de00614060008040780006
:1008ec00901680004400de00614060000081fb0037
:1008fc00501680004500de00614060008081fb00e6
:10090c00501680004700de00614060000082fb0052
:10091c00501680004800de00614060000080fb0043
:10092c00000040000000420000004000000278007f
:10093c00501680004600de00614060000080fb0025
:10094c000000420000004000008041000000400018
:10095c0080017800901680004500de006140600048
:10096c000080fb00008041000000400000004100be
:10097c000000400000017800901680004300de006b
:10098c00614060000080fb000000410000407800e6
:10099c000040400000c0400000e8b70000c8bf00a5
:1009ac000004e00005003d0000c8bf00e14f40001e
:1009bc0002003200600020000600370000c8bf00b3
:1009cc00e14f400002003a007000200001003700a7
:1009dc00200020000080fa00000006000000fa0051
:1009ec0012c8bf000004e0003500320013c8bf007d
:1009fc000004e00032003a00101680004900de00ce
:100a0c006140600080407800a0812000014878009f
:100a1c00901680004300de0061406000804078004a
:100a2c00b081200001487800901680004400de0060
:100a3c006140600080407800c0812000014878004f
:100a4c00901680004500de00614060008040780018
:100a5c00d081200001487800501680004500de004f
:100a6c006140600080407800e081200001487800ff
:100a7c00501680004600de00614060008040780027
:100a8c00f081200001487800501680004700de00fd
:100a9c0061406000804078000082200001487800ae
:100aac00501680004800de006140600080407800f5
:100abc00108220000148780030002000010037002f
:100acc00200020000080fa00000006000000fa0060
:100adc0012c8bf000004e0003500320013c8bf008c
:100aec000004e00032003a00101680004900de00dd
:100afc00614060008040780020822000014878002e
:100b0c00901680004300de00614060008040780059
:100b1c003082200001487800901680004400de00ee
:100b2c0061406000804078004082200001487800dd
:100b3c00901680004500de00614060008040780027
:100b4c005082200001487800501680004500de00dd
:100b5c00614060008040780060822000014878008d
:100b6c00501680004600de00614060008040780036
:100b7c007082200001487800501680004700de008b
:100b8c00614060008040780080822000014878003d
:100b9c00501680004800de00614060008040780004
:100bac00908220000148780050002000010037009e
:100bbc00300020000080fa00000006000000fa005f
:100bcc0012c8bf000004e0005800320013c8bf0078
:100bdc000004e00055003a00a0812000104078008d
:100bec00614060000080fb00610060004900dd0096
:100bfc00211680000190a1000100700020168800d1
:100c0c00b081200010407800614060000080fb0043
:100c1c00610060004300dd00a11680000130a100de
:100c2c0001007000a0168800c081200010407800e0
:100c3c00614060000080fb00610060004400dd004a
:100c4c00a11680000140a10001007000a0168800d0
:100c5c00d081200010407800614060000080fb00d3
:100c6c00610060004500dd00a11680000150a1006c
:100c7c0001007000a0168800e08120001040780070
:100c8c00614060000080fb00610060004500dd00f9
:100c9c00611680000150a1000100700060168800f0
:100cac00f081200010407800614060000080fb0063
:100cbc00610060004600dd00611680000160a1004b
:100ccc00010070006016880000822000104078003f
:100cdc00614060000080fb00610060004700dd00a7
:100cec00611680000170a100010070006016880080
:100cfc001082200010407800614060000080fb00f2
:100d0c00610060004800dd00611680000180a100d8
:100d1c000100700060168800a0002000d6030700b8
:100d2c00860307000000eb000100370040002000a4
:100d3c000080fa00000006000000fa0000c8bf00a6
:100d4c000080fb00e20f500024003200e20f500044
:100d5c0005003c000000e000b8003200e10f50003c
:100d6c0008003200b6003700e40f50006800320073
:100d7c00e40f500044003500e50f50008c003200a9
:100d8c00af0037000f68ef000c0037000fc8bf0032
:100d9c000081fb000fc8bf000080fb00a181200078
:100dac00e1407800a082200000004100014878005a
:100dbc000fc8bf000040e8000fe8b7000fc8bf0025
:100dcc00e74f5000f1ff3600208220009040780061
:100ddc0020832000014878009900370030832000e0
:100dec008040eb0001487800408320008040eb00fd
:100dfc00014878000f68ef001f0037003083200097
:100e0c00904078000fc8bf000080fb00a28120003a
:100e1c00624078000081fb000fc8bf000080fb001f
:100e2c000010dd000040780080c0400030832000be
:100e3c000148780040832000904078000fc8bf0024
:100e4c000080fb0022822000624078000081fb00c1
:100e5c000fc8bf000080fb000010dd0000407800d0
:100e6c0080c0400040832000014878000fc8bf00bc
:100e7c000040e8000fe8b7000fc8bf00e74f500074
:100e8c00deff36006e003700508320008040eb0000
:100e9c00014878000f68ef001100370050832000e4
:100eac00904078000fc8bf000080fb00a28120009a
:100ebc00624078000081fb000fc8bf000080fb007f
:100ecc000010dd000040780080c0400050832000fe
:100edc00014878000fc8bf000040e8000fe8b700d9
:100eec000fc8bf00e74f5000ecff360032c0b30014
:100efc00718320002082200015fe07005082200004
:100f0c009040780060832000014878004c00370046
:100f1c0012c0b30071842000a08120000cfe0700d9
:100f2c0010c0b3000fe8b700190037000fc8bf009e
:100f3c000080fb00a18120006140780001e8b7002f
:100f4c000fc8bf000080fb00f180200091407800aa
:100f5c008180fb00e6801000a281200062c1780035
:100f6c00a1812000827078000fc8bf000080fb00b8
:100f7c00660010001280200012417800a181200030
:100f8c00827078000fc8bf000040e8000fe8b7007f
:100f9c000fc8bf00e24f5000e4ff360052c0b30050
:100fac00d1832000b0812000e9fd07002400370028
:100fbc000f68ef00190037000fc8bf000080fb005e
:100fcc00a18120006140780001e8b7000fc8bf0084
:100fdc000080fb00f1802000914078008180fb00b4
:100fec00e7801000a281200062c17800a18120005e
:100ffc00827078000fc8bf000080fb0067001000f3
:10100c001280200012417800a181200082707800ab
:10101c000fc8bf000040e8000fe8b7000fc8bf00c2
:10102c00e34f5000e4ff360082c0b30091842000ef
:10103c00a0812000c6fd0700010037000000000061
:10104c000000eb000080fa00000006000000fa002f
:10105c00c602070000c8bf008080fb00000820000b
:10106c00808f500017003a000e68ef001100370017
:10107c000ec8bf000080fb00e1802000914078008a
:10108c008180fb00e780100092852000e2c0780090
:10109c008180fb008100e900cf08de00014178006f
:1010ac00a1812000827078000ec8bf000040e800cb
:1010bc000ee8b7000ec8bf00e74f5000ecff36003b
:1010cc000100370000000000400020000080fa0002
:1010dc00000006000000fa000828ef000a28ef00c4
:1010ec000e00370040408000514080006c81400071
:1010fc00a182200081004100114190001186200046
:10110c0082707800404080000000e8004040880079
:10111c00504080000000e8005040880050408000a3
:10112c00e50f5000efff34000a28ef000e003700e7
:10113c00404080005140800072814000a18220001c
:10114c0081004100114190001186200082707800ce
:10115c00404080000000e800404088005040800083
:10116c000000e8005040880050408000e90f50001b
:10117c00efff340010002000504088000e003700b4
:10118c0040408000514080007c814000a1822000c2
:10119c00810041001141900011862000827078007e
:1011ac00404080000000e800404088005040800033
:1011bc000000e90050408800504080000000e00032
:1011cc00efff3d000a28ef000a0037004040800086
:1011dc00118620000041eb008270780040408000b6
:1011ec000000e80040408800504080000000e8000b
:1011fc005040880050408000e10f5000f3ff340055
:10120c000a28ef00110037004040800011862000b2
:10121c0012c0b30082707800404080000000e800eb
:10122c004040880040408000118620000041eb00c7
:10123c0082707800404080000000e8004040880048
:10124c00504080000080e8005040880050408000f2
:10125c00ef0f5000ecff340060832000104078004a
:10126c000004e0000f003200404080001186200096
:10127c000041eb0082707800404080000000e800e4
:10128c0040408800404080001186200012c0b3000e
:10129c0082707800404080000000e80040408800e8
:1012ac000e003700404080001186200012c0b300b1
:1012bc0082707800404080000000e80040408800c8
:1012cc0040408000118620000041eb0082707800c5
:1012dc00404080000000e800404088004040800012
:1012ec001186200000c1eb00827078000a28ef0004
:1012fc000b00370050408000518320009140780053
:10130c008180fb0000014000608c20000000410047
:10131c0001087800504080000000e8005040880030
:10132c005140800040408000808f5000f1ff35001c
:10133c000a28ef00d522a9000268ef00410207003d
:10134c00390037005040800080004000608c200045
:10135c000080400010017800504080000000e80040
:10136c0011862000e14078001086200010407800a3
:10137c0049010700504080000000e8005040880000
:10138c0016c8bf008080fb0050408000808f50004a
:10139c0025003c00504080008040780016c8bf00fb
:1013ac0000c050000ce8b7000cc8bf0061406000e2
:1013bc000004e0001c003a000cc8bf000000fb0059
:1013cc00cf00de00008040000080d100004078009b
:1013dc000de8b7000dc8bf000080fb00511680005f
:1013ec00c908de00e1c06000014178009185200051
:1013fc00827078000dc8bf00614060000080fb0067
:10140c000000e9004f00de00004078000080fb0087
:10141c00610060004900dd00a11680000190a10070
:10142c0001007000a016880050408000118620003a
:10143c0061407800e14f4000c2ff3a000000eb0031
:10144c000080fa00000006000000fa000568ef00ba
:10145c0005c8bf000080fb00118620000041eb0096
:10146c008270780005c8bf000040e80005e8b700ae
:10147c0005c8bf000080fb001186200012c0b3001d
:10148c008270780005c8bf000040e80005e8b7008e
:10149c000668ef001000370005c8bf000080fb0095
:1014ac0061802000914078000181fb00a182200026
:1014bc008100410011417800118620008270780073
:1014cc0005c8bf000040e80005e8b70006c8bf002b
:1014dc000040e80006e8b70006c8bf00e84f50001f
:1014ec00edff360005c8bf000080fb0061832000c3
:1014fc0011417800118620008270780005c8bf0069
:10150c000040e80005e8b70005c8bf000080fb00fc
:10151c001186200000c1eb008270780005c8bf0066
:10152c000040e80005e8b700308320001040780048
:10153c008080fb00803e20000088b900000078000d
:10154c003046880040832000104078008080fb00eb
:10155c00803e20000088b9000000780040468800da
:10156c0020c0b30006e8b7000c00370006c8bf0067
:10157c000080fb0051832000914078008180fb00ab
:10158c0000014000608c2000000041000108780040
:10159c0006c8bf000040e80006e8b70006c8bf0058
:1015ac00ea4f5000f1ff36000668ef00a501070076
:1015bc000268ef001100370006c8bf000080fb0076
:1015cc0080004000608c20000080400010017800fa
:1015dc0006c8bf000080fb000000e8001186200058
:1015ec00e14078001086200010407800aa00070027
:1015fc0006c8bf000040e80006e8b70006c8bf00f8
:10160c000080fb001186200061407800e14f400013
:10161c00e9ff3a000000eb000080fa000000060031
:10162c000000fa000368ef000468ef0011003700b7
:10163c0003c8bf000080fb0041802000914078006f
:10164c008180fb006c814000a18220008100410060
:10165c0011419000118620008270780003c8bf00f1
:10166c000040e80003e8b70004c8bf000040e800f1
:10167c0004e8b70004c8bf00e54f5000ecff36008b
:10168c000468ef001100370003c8bf000080fb00a6
:10169c0041802000914078008180fb0072814000e5
:1016ac00a182200081004100114190001186200090
:1016bc008270780003c8bf000040e80003e8b70060
:1016cc0004c8bf000040e80004e8b70004c8bf002d
:1016dc00e94f5000ecff36000468ef0011003700b2
:1016ec0003c8bf000080fb004180200091407800bf
:1016fc008180fb007c814000a182200081004100a0
:10170c0011419000118620008270780003c8bf0040
:10171c000040e80003e8b70004c8bf000040e80040
:10172c0004e8b70004c8bf00e14f5000ecff3600de
:10173c000468ef001100370003c8bf000080fb00f5
:10174c0041802000914078008180fb007e81400028
:10175c00a1822000810041001141900011862000df
:10176c008270780003c8bf000040e80003e8b700af
:10177c0004c8bf000040e80004e8b70004c8bf007c
:10178c00ef4f5000ecff360003c8bf000080fb0099
:10179c00618320001141780011862000827078004e
:1017ac0003c8bf000040e80003e8b70003c8bf004f
:1017bc000080fb001186200000c1eb0082707800d5
:1017cc0003c8bf000040e80003e8b7000468ef005e
:1017dc000c00370004c8bf000080fb0051832000c0
:1017ec00914078008180fb0000014000608c20005b
:1017fc00000041000108780004c8bf000040e80068
:10180c0004e8b70004c8bf008080fb0003c8bf0019
:10181c000080fb000000e900808f5000edff3500d8
:10182c000468ef00070107000268ef0011003700a1
:10183c0004c8bf000080fb0080004000608c2000ca
:10184c00008040001001780004c8bf000080fb003d
:10185c000000e80011862000e1407800108620008e
:10186c00104078000c00070004c8bf000040e800de
:10187c0004e8b70004c8bf000080fb0011862000fc
:10188c0061407800e14f4000e9ff3a000000eb00b6
:10189c000080fa00000006000400fa00004f7800f7
:1018ac0011479800120798009e009000f0702200db
:1018bc00808f500009003e0091088000f0fc2f0042
:1018cc0000806000900888001e0090004200dd003f
:1018dc0073005000700888000800370091088000e1
:1018ec00f0fc2f00008060000040a00090088800f1
:1018fc001e0090000000d100700888001e4190006e
:10190c00918120008248780002c8bf000004e000ea
:10191c000c003a0013e1a8009e40780061c0600002
:10192c000080fb00610060004d00dd00611680004e
:10193c0001d0a100010070006016880010c0b30037
:10194c0002e8b7001e409000e14f400005003a004d
:10195c0013e1a9009500a90010c0b30018e8b70066
:10196c00010037000000000018c8bf000004e000b0
:10197c00fdff32001868ef000080fa00000006003e
:10198c000000fa000080fa00000006000200fa00d5
:10199c00000f78004b000700301020004011880029
:1019ac000000280000118800004028001011880059
:1019bc008560a90011118000f0f32f0000806000f9
:1019cc00101188000080fa00000006000200fa00e6
:1019dc00004f780000000000111180000020200052
:1019ec00008060000000e000fbff3a001e00fb00de
:1019fc00201188000080fa00000006000400fa00a4
:101a0c00100798000000eb00000f7800060037006c
:101a1c001e0078009e00900000804000104078006e
:101a2c00eaff07001e0fe8001e0078009e009000e1
:101a3c0000804000104078000004e000f4ff3a0001
:101a4c000080fa00000006000200fa00000000000e
:101a5c002104800000802000008060000000e00075
:101a6c00fbff320030118000004f78008560a90028
:101a7c001e4078000080fa00000006000400fa0006
:101a8c00881f7800100798000000eb00000f78000a
:101a9c00060037001e0078009e0090000084400075
:101aac00e9ff0700004c78001e0fe8001e007800cc
:101abc00e10f5000f7ff34004f0478000080fa006b
:101acc00000006000000fa002135800000fe2f0007
:101adc0000806000a000b3002035880051368000e3
:101aec00f00f2e008080600000302000010070009c
:101afc00503688000080fa00000006000000fa0052
:101b0c00c9c2a800c0e2a800c142a800c982a800ae
:101b1c00c922a800c9a2a900c9e2a900d0c2a90083
:101b2c00d122a900c942a800c962a9000080eb001b
:101b3c00601988000080fa00000006000000fa001e
:101b4c00d4c2a800c122a800d062a800d082a800ec
:101b5c00d0a2a800c8a2a800c8c2a800c8e2a800c9
:101b6c00c902a8000080fa00000006000000fa007c
:101b7c00d4c2a900c122a900d062a900d082a900b8
:101b8c00d0a2a900c8a2a900c8c2a900c8e2a90095
:101b9c00c902a9000080fa00000006000000fa004b
:101bac00e0012000303a8800213a8000f0f32f0049
:101bbc0000806000203a8800213a800000fe2f004f
:101bcc0000806000203a880032002000800720004e
:101bdc00a1092000337420008049780081497800e5
:101bec0082497800103a8000000178000200a000c1
:101bfc0060042000710520002374200080497800c7
:101c0c00814978008249780000000000113a800078
:101c1c00000027008080600000002300808f5000af
:101c2c00faff3a0000000000113a80000002200088
:101c3c00008060000000e000fbff32000080fa0032
:101c4c00000006000000fa001221a90012c1a90030
:101c5c000a21ef008500a9009500a800410580002d
:101c6c0080ff2f00008060000010a000400588005d
:101c7c000080fa00000006000200fa00000f780055
:101c8c0021e1a9002021a90020c1a900010980009f
:101c9c00f0fc2f00008060000050a00000098800bc
:101cac001821ef009e007800102720000088b90052
:101cbc0000007800e00888008780a90021e1a800d6
:101ccc000000000031048000000021000080600052
:101cdc000000e000fbff32008780a9000080fa00c2
:101cec00000006000200fa00000f780021e1a900b4
:101cfc002021a90020c1a90001098000f0fc2f00bf
:101d0c0000806000000988001821ef009e00780018
:101d1c00800220000088b90000007800e0088800ec
:101d2c008780a90021e1a800000000003104800098
:101d3c0000002100008060000000e000fbff32008a
:0c1d4c008780a9000080fa00000006005b
:020000040000fa
:101d58001808000002000000000000001a08000037
:101d680074010000000000001008000008000000d6
:101d7800020000000101010001010100160000003d
:101d88000008000010000000000000000000000033
:020000040000fa
:101d98000200fa0082ff070059ff070068ff0700ea
:101da80000582200fafe07000000eb00000f780040
:101db800202f280012ff07001e0078000dfa0700e8
:0c1dc800000f78000060fe00fbff3700f9
:020000040000fa
:0200000401f009
:04000c0000000000f0
:020000040000fa
:0200000401f009
:040010006500000087
:020000040000fa
:0200000401f009
:04001400c700000021
:020000040000fa
:0200000401f009
:04001800f7000000ed
:020000040000fa
:0200000401f009
:04001c00dfff000002
:00000001FF
